{
  "_format": "hh-sol-artifact-1",
  "contractName": "AgentCoop",
  "sourceName": "contracts/AgentCoop.sol",
  "abi": [
    {
      "inputs": [
        {
          "internalType": "string",
          "name": "_name",
          "type": "string"
        },
        {
          "internalType": "string",
          "name": "_description",
          "type": "string"
        },
        {
          "internalType": "address[]",
          "name": "_founders",
          "type": "address[]"
        },
        {
          "internalType": "string[]",
          "name": "_agentIds",
          "type": "string[]"
        },
        {
          "internalType": "uint256[]",
          "name": "_shares",
          "type": "uint256[]"
        },
        {
          "internalType": "address",
          "name": "_arbitrator",
          "type": "address"
        }
      ],
      "stateMutability": "nonpayable",
      "type": "constructor"
    },
    {
      "inputs": [],
      "name": "EnforcedPause",
      "type": "error"
    },
    {
      "inputs": [],
      "name": "ExpectedPause",
      "type": "error"
    },
    {
      "inputs": [],
      "name": "ReentrancyGuardReentrantCall",
      "type": "error"
    },
    {
      "anonymous": false,
      "inputs": [
        {
          "indexed": false,
          "internalType": "string",
          "name": "name",
          "type": "string"
        },
        {
          "indexed": false,
          "internalType": "address[]",
          "name": "founders",
          "type": "address[]"
        },
        {
          "indexed": false,
          "internalType": "uint256[]",
          "name": "shares",
          "type": "uint256[]"
        }
      ],
      "name": "CoopCreated",
      "type": "event"
    },
    {
      "anonymous": false,
      "inputs": [
        {
          "indexed": false,
          "internalType": "uint256",
          "name": "projectId",
          "type": "uint256"
        },
        {
          "indexed": false,
          "internalType": "address",
          "name": "raisedBy",
          "type": "address"
        },
        {
          "indexed": false,
          "internalType": "string",
          "name": "reason",
          "type": "string"
        }
      ],
      "name": "DisputeRaised",
      "type": "event"
    },
    {
      "anonymous": false,
      "inputs": [
        {
          "indexed": false,
          "internalType": "uint256",
          "name": "projectId",
          "type": "uint256"
        },
        {
          "indexed": false,
          "internalType": "bool",
          "name": "clientWins",
          "type": "bool"
        }
      ],
      "name": "DisputeResolved",
      "type": "event"
    },
    {
      "anonymous": false,
      "inputs": [
        {
          "indexed": false,
          "internalType": "address",
          "name": "wallet",
          "type": "address"
        },
        {
          "indexed": false,
          "internalType": "string",
          "name": "agentId",
          "type": "string"
        },
        {
          "indexed": false,
          "internalType": "uint256",
          "name": "shares",
          "type": "uint256"
        }
      ],
      "name": "MemberAdded",
      "type": "event"
    },
    {
      "anonymous": false,
      "inputs": [
        {
          "indexed": false,
          "internalType": "address",
          "name": "wallet",
          "type": "address"
        }
      ],
      "name": "MemberRemoved",
      "type": "event"
    },
    {
      "anonymous": false,
      "inputs": [
        {
          "indexed": false,
          "internalType": "uint256",
          "name": "projectId",
          "type": "uint256"
        },
        {
          "indexed": false,
          "internalType": "uint256",
          "name": "milestoneIndex",
          "type": "uint256"
        },
        {
          "indexed": false,
          "internalType": "address",
          "name": "completedBy",
          "type": "address"
        }
      ],
      "name": "MilestoneCompleted",
      "type": "event"
    },
    {
      "anonymous": false,
      "inputs": [
        {
          "indexed": false,
          "internalType": "address",
          "name": "account",
          "type": "address"
        }
      ],
      "name": "Paused",
      "type": "event"
    },
    {
      "anonymous": false,
      "inputs": [
        {
          "indexed": false,
          "internalType": "uint256",
          "name": "projectId",
          "type": "uint256"
        },
        {
          "indexed": false,
          "internalType": "uint256",
          "name": "amount",
          "type": "uint256"
        }
      ],
      "name": "PaymentReceived",
      "type": "event"
    },
    {
      "anonymous": false,
      "inputs": [
        {
          "indexed": false,
          "internalType": "uint256",
          "name": "projectId",
          "type": "uint256"
        },
        {
          "indexed": false,
          "internalType": "string",
          "name": "projectRef",
          "type": "string"
        },
        {
          "indexed": false,
          "internalType": "address",
          "name": "client",
          "type": "address"
        },
        {
          "indexed": false,
          "internalType": "uint256",
          "name": "amount",
          "type": "uint256"
        }
      ],
      "name": "ProjectCreated",
      "type": "event"
    },
    {
      "anonymous": false,
      "inputs": [
        {
          "indexed": false,
          "internalType": "uint256",
          "name": "amount",
          "type": "uint256"
        },
        {
          "indexed": false,
          "internalType": "uint256",
          "name": "timestamp",
          "type": "uint256"
        }
      ],
      "name": "RevenueDistributed",
      "type": "event"
    },
    {
      "anonymous": false,
      "inputs": [
        {
          "indexed": false,
          "internalType": "address",
          "name": "wallet",
          "type": "address"
        },
        {
          "indexed": false,
          "internalType": "uint256",
          "name": "oldShares",
          "type": "uint256"
        },
        {
          "indexed": false,
          "internalType": "uint256",
          "name": "newShares",
          "type": "uint256"
        }
      ],
      "name": "SharesUpdated",
      "type": "event"
    },
    {
      "anonymous": false,
      "inputs": [
        {
          "indexed": false,
          "internalType": "address",
          "name": "account",
          "type": "address"
        }
      ],
      "name": "Unpaused",
      "type": "event"
    },
    {
      "inputs": [],
      "name": "VOTE_THRESHOLD",
      "outputs": [
        {
          "internalType": "uint256",
          "name": "",
          "type": "uint256"
        }
      ],
      "stateMutability": "view",
      "type": "function"
    },
    {
      "inputs": [],
      "name": "arbitrator",
      "outputs": [
        {
          "internalType": "address",
          "name": "",
          "type": "address"
        }
      ],
      "stateMutability": "view",
      "type": "function"
    },
    {
      "inputs": [
        {
          "internalType": "uint256",
          "name": "_projectId",
          "type": "uint256"
        },
        {
          "internalType": "uint256",
          "name": "_milestoneIndex",
          "type": "uint256"
        }
      ],
      "name": "completeMilestone",
      "outputs": [],
      "stateMutability": "nonpayable",
      "type": "function"
    },
    {
      "inputs": [],
      "name": "coopDescription",
      "outputs": [
        {
          "internalType": "string",
          "name": "",
          "type": "string"
        }
      ],
      "stateMutability": "view",
      "type": "function"
    },
    {
      "inputs": [],
      "name": "coopName",
      "outputs": [
        {
          "internalType": "string",
          "name": "",
          "type": "string"
        }
      ],
      "stateMutability": "view",
      "type": "function"
    },
    {
      "inputs": [
        {
          "internalType": "string",
          "name": "_projectRef",
          "type": "string"
        },
        {
          "internalType": "address",
          "name": "_client",
          "type": "address"
        },
        {
          "internalType": "uint256",
          "name": "_totalAmount",
          "type": "uint256"
        },
        {
          "internalType": "string[]",
          "name": "_milestoneDescriptions",
          "type": "string[]"
        },
        {
          "internalType": "uint256[]",
          "name": "_milestoneAmounts",
          "type": "uint256[]"
        }
      ],
      "name": "createProject",
      "outputs": [
        {
          "internalType": "uint256",
          "name": "",
          "type": "uint256"
        }
      ],
      "stateMutability": "nonpayable",
      "type": "function"
    },
    {
      "inputs": [],
      "name": "distributeBalance",
      "outputs": [],
      "stateMutability": "nonpayable",
      "type": "function"
    },
    {
      "inputs": [],
      "name": "getActiveMemberCount",
      "outputs": [
        {
          "internalType": "uint256",
          "name": "",
          "type": "uint256"
        }
      ],
      "stateMutability": "view",
      "type": "function"
    },
    {
      "inputs": [],
      "name": "getCoopStats",
      "outputs": [
        {
          "internalType": "uint256",
          "name": "memberCount",
          "type": "uint256"
        },
        {
          "internalType": "uint256",
          "name": "projectCount",
          "type": "uint256"
        },
        {
          "internalType": "uint256",
          "name": "earned",
          "type": "uint256"
        },
        {
          "internalType": "uint256",
          "name": "distributed",
          "type": "uint256"
        },
        {
          "internalType": "uint256",
          "name": "balance",
          "type": "uint256"
        }
      ],
      "stateMutability": "view",
      "type": "function"
    },
    {
      "inputs": [],
      "name": "getMemberCount",
      "outputs": [
        {
          "internalType": "uint256",
          "name": "",
          "type": "uint256"
        }
      ],
      "stateMutability": "view",
      "type": "function"
    },
    {
      "inputs": [
        {
          "internalType": "uint256",
          "name": "_projectId",
          "type": "uint256"
        }
      ],
      "name": "getMilestones",
      "outputs": [
        {
          "components": [
            {
              "internalType": "string",
              "name": "description",
              "type": "string"
            },
            {
              "internalType": "uint256",
              "name": "amount",
              "type": "uint256"
            },
            {
              "internalType": "bool",
              "name": "completed",
              "type": "bool"
            },
            {
              "internalType": "bool",
              "name": "paid",
              "type": "bool"
            },
            {
              "internalType": "address",
              "name": "completedBy",
              "type": "address"
            }
          ],
          "internalType": "struct AgentCoop.Milestone[]",
          "name": "",
          "type": "tuple[]"
        }
      ],
      "stateMutability": "view",
      "type": "function"
    },
    {
      "inputs": [],
      "name": "getProjectCount",
      "outputs": [
        {
          "internalType": "uint256",
          "name": "",
          "type": "uint256"
        }
      ],
      "stateMutability": "view",
      "type": "function"
    },
    {
      "inputs": [
        {
          "internalType": "address",
          "name": "",
          "type": "address"
        }
      ],
      "name": "isMember",
      "outputs": [
        {
          "internalType": "bool",
          "name": "",
          "type": "bool"
        }
      ],
      "stateMutability": "view",
      "type": "function"
    },
    {
      "inputs": [
        {
          "internalType": "address",
          "name": "",
          "type": "address"
        }
      ],
      "name": "memberIndex",
      "outputs": [
        {
          "internalType": "uint256",
          "name": "",
          "type": "uint256"
        }
      ],
      "stateMutability": "view",
      "type": "function"
    },
    {
      "inputs": [
        {
          "internalType": "uint256",
          "name": "",
          "type": "uint256"
        }
      ],
      "name": "members",
      "outputs": [
        {
          "internalType": "address",
          "name": "wallet",
          "type": "address"
        },
        {
          "internalType": "string",
          "name": "agentId",
          "type": "string"
        },
        {
          "internalType": "uint256",
          "name": "sharePoints",
          "type": "uint256"
        },
        {
          "internalType": "bool",
          "name": "isActive",
          "type": "bool"
        },
        {
          "internalType": "uint256",
          "name": "joinedAt",
          "type": "uint256"
        }
      ],
      "stateMutability": "view",
      "type": "function"
    },
    {
      "inputs": [],
      "name": "pause",
      "outputs": [],
      "stateMutability": "nonpayable",
      "type": "function"
    },
    {
      "inputs": [],
      "name": "paused",
      "outputs": [
        {
          "internalType": "bool",
          "name": "",
          "type": "bool"
        }
      ],
      "stateMutability": "view",
      "type": "function"
    },
    {
      "inputs": [
        {
          "internalType": "uint256",
          "name": "_projectId",
          "type": "uint256"
        }
      ],
      "name": "payProject",
      "outputs": [],
      "stateMutability": "payable",
      "type": "function"
    },
    {
      "inputs": [
        {
          "internalType": "uint256",
          "name": "",
          "type": "uint256"
        },
        {
          "internalType": "uint256",
          "name": "",
          "type": "uint256"
        }
      ],
      "name": "projectMilestones",
      "outputs": [
        {
          "internalType": "string",
          "name": "description",
          "type": "string"
        },
        {
          "internalType": "uint256",
          "name": "amount",
          "type": "uint256"
        },
        {
          "internalType": "bool",
          "name": "completed",
          "type": "bool"
        },
        {
          "internalType": "bool",
          "name": "paid",
          "type": "bool"
        },
        {
          "internalType": "address",
          "name": "completedBy",
          "type": "address"
        }
      ],
      "stateMutability": "view",
      "type": "function"
    },
    {
      "inputs": [
        {
          "internalType": "uint256",
          "name": "",
          "type": "uint256"
        }
      ],
      "name": "projects",
      "outputs": [
        {
          "internalType": "string",
          "name": "projectId",
          "type": "string"
        },
        {
          "internalType": "address",
          "name": "client",
          "type": "address"
        },
        {
          "internalType": "uint256",
          "name": "totalAmount",
          "type": "uint256"
        },
        {
          "internalType": "uint256",
          "name": "paidAmount",
          "type": "uint256"
        },
        {
          "internalType": "uint256",
          "name": "milestoneCount",
          "type": "uint256"
        },
        {
          "internalType": "uint256",
          "name": "milestonesCompleted",
          "type": "uint256"
        },
        {
          "internalType": "enum AgentCoop.ProjectStatus",
          "name": "status",
          "type": "uint8"
        },
        {
          "internalType": "uint256",
          "name": "createdAt",
          "type": "uint256"
        }
      ],
      "stateMutability": "view",
      "type": "function"
    },
    {
      "inputs": [
        {
          "internalType": "address",
          "name": "_wallet",
          "type": "address"
        },
        {
          "internalType": "string",
          "name": "_agentId",
          "type": "string"
        },
        {
          "internalType": "uint256",
          "name": "_shares",
          "type": "uint256"
        }
      ],
      "name": "proposeAddMember",
      "outputs": [],
      "stateMutability": "nonpayable",
      "type": "function"
    },
    {
      "inputs": [
        {
          "internalType": "address",
          "name": "_wallet",
          "type": "address"
        }
      ],
      "name": "proposeRemoveMember",
      "outputs": [],
      "stateMutability": "nonpayable",
      "type": "function"
    },
    {
      "inputs": [
        {
          "internalType": "uint256",
          "name": "_projectId",
          "type": "uint256"
        },
        {
          "internalType": "string",
          "name": "_reason",
          "type": "string"
        }
      ],
      "name": "raiseDispute",
      "outputs": [],
      "stateMutability": "nonpayable",
      "type": "function"
    },
    {
      "inputs": [
        {
          "internalType": "uint256",
          "name": "_projectId",
          "type": "uint256"
        },
        {
          "internalType": "bool",
          "name": "_clientWins",
          "type": "bool"
        }
      ],
      "name": "resolveDispute",
      "outputs": [],
      "stateMutability": "nonpayable",
      "type": "function"
    },
    {
      "inputs": [],
      "name": "totalDistributed",
      "outputs": [
        {
          "internalType": "uint256",
          "name": "",
          "type": "uint256"
        }
      ],
      "stateMutability": "view",
      "type": "function"
    },
    {
      "inputs": [],
      "name": "totalEarned",
      "outputs": [
        {
          "internalType": "uint256",
          "name": "",
          "type": "uint256"
        }
      ],
      "stateMutability": "view",
      "type": "function"
    },
    {
      "inputs": [],
      "name": "unpause",
      "outputs": [],
      "stateMutability": "nonpayable",
      "type": "function"
    },
    {
      "inputs": [
        {
          "internalType": "address",
          "name": "_newArbitrator",
          "type": "address"
        }
      ],
      "name": "updateArbitrator",
      "outputs": [],
      "stateMutability": "nonpayable",
      "type": "function"
    },
    {
      "inputs": [
        {
          "internalType": "bytes32",
          "name": "",
          "type": "bytes32"
        }
      ],
      "name": "voteCount",
      "outputs": [
        {
          "internalType": "uint256",
          "name": "",
          "type": "uint256"
        }
      ],
      "stateMutability": "view",
      "type": "function"
    },
    {
      "inputs": [
        {
          "internalType": "bytes32",
          "name": "",
          "type": "bytes32"
        },
        {
          "internalType": "address",
          "name": "",
          "type": "address"
        }
      ],
      "name": "votes",
      "outputs": [
        {
          "internalType": "bool",
          "name": "",
          "type": "bool"
        }
      ],
      "stateMutability": "view",
      "type": "function"
    },
    {
      "stateMutability": "payable",
      "type": "receive"
    }
  ],
  "bytecode": "0x60806040523480156200001157600080fd5b5060405162003805380380620038058339810160408190526200003491620007c4565b60016000558151845114620000845760405162461bcd60e51b8152602060048201526011602482015270082e4e4c2f2e640daeae6e840dac2e8c6d607b1b60448201526064015b60405180910390fd5b8251845114620000cb5760405162461bcd60e51b8152602060048201526011602482015270082e4e4c2f2e640daeae6e840dac2e8c6d607b1b60448201526064016200007b565b6002845110156200011f5760405162461bcd60e51b815260206004820152601860248201527f4e656564206174206c65617374203220666f756e64657273000000000000000060448201526064016200007b565b6001600160a01b0381166200016c5760405162461bcd60e51b815260206004820152601260248201527124b73b30b634b21030b93134ba3930ba37b960711b60448201526064016200007b565b60026200017a878262000945565b50600362000189868262000945565b50600480546001600160a01b0319166001600160a01b0383161790556000805b8551811015620004995760006001600160a01b0316868281518110620001d357620001d362000a11565b60200260200101516001600160a01b031603620002255760405162461bcd60e51b815260206004820152600f60248201526e496e76616c6964206164647265737360881b60448201526064016200007b565b600760008783815181106200023e576200023e62000a11565b6020908102919091018101516001600160a01b031682528101919091526040016000205460ff1615620002a75760405162461bcd60e51b815260206004820152601060248201526f223ab83634b1b0ba329036b2b6b132b960811b60448201526064016200007b565b60056040518060a00160405280888481518110620002c957620002c962000a11565b60200260200101516001600160a01b03168152602001878481518110620002f457620002f462000a11565b6020026020010151815260200186848151811062000316576200031662000a11565b602090810291909101810151825260018282018190524260409093019290925283548083018555600094855293819020835160059095020180546001600160a01b0319166001600160a01b039095169490941784558201519192919082019062000381908262000945565b506040820151816002015560608201518160030160006101000a81548160ff0219169083151502179055506080820151816004015550508060066000888481518110620003d257620003d262000a11565b60200260200101516001600160a01b03166001600160a01b031681526020019081526020016000208190555060016007600088848151811062000419576200041962000a11565b60200260200101516001600160a01b03166001600160a01b0316815260200190815260200160002060006101000a81548160ff0219169083151502179055508381815181106200046d576200046d62000a11565b60200260200101518262000482919062000a3d565b915080620004908162000a59565b915050620001a9565b508061271014620004ed5760405162461bcd60e51b815260206004820152601860248201527f536861726573206d7573742073756d20746f203130303030000000000000000060448201526064016200007b565b7f97bb7e9b797a6af41a3ceb5e7833e0a8552708c43a272a6d3b455fce2d03d000878685604051620005229392919062000ab2565b60405180910390a15050505050505062000b4f565b634e487b7160e01b600052604160045260246000fd5b604051601f8201601f191681016001600160401b038111828210171562000578576200057862000537565b604052919050565b60005b838110156200059d57818101518382015260200162000583565b50506000910152565b600082601f830112620005b857600080fd5b81516001600160401b03811115620005d457620005d462000537565b620005e9601f8201601f19166020016200054d565b818152846020838601011115620005ff57600080fd5b6200061282602083016020870162000580565b949350505050565b60006001600160401b0382111562000636576200063662000537565b5060051b60200190565b80516001600160a01b03811681146200065857600080fd5b919050565b600082601f8301126200066f57600080fd5b815160206200068862000682836200061a565b6200054d565b82815260059290921b84018101918181019086841115620006a857600080fd5b8286015b84811015620006ce57620006c08162000640565b8352918301918301620006ac565b509695505050505050565b600082601f830112620006eb57600080fd5b81516020620006fe62000682836200061a565b82815260059290921b840181019181810190868411156200071e57600080fd5b8286015b84811015620006ce5780516001600160401b03811115620007435760008081fd5b620007538986838b0101620005a6565b84525091830191830162000722565b600082601f8301126200077457600080fd5b815160206200078762000682836200061a565b82815260059290921b84018101918181019086841115620007a757600080fd5b8286015b84811015620006ce5780518352918301918301620007ab565b60008060008060008060c08789031215620007de57600080fd5b86516001600160401b0380821115620007f657600080fd5b620008048a838b01620005a6565b975060208901519150808211156200081b57600080fd5b620008298a838b01620005a6565b965060408901519150808211156200084057600080fd5b6200084e8a838b016200065d565b955060608901519150808211156200086557600080fd5b620008738a838b01620006d9565b945060808901519150808211156200088a57600080fd5b506200089989828a0162000762565b925050620008aa60a0880162000640565b90509295509295509295565b600181811c90821680620008cb57607f821691505b602082108103620008ec57634e487b7160e01b600052602260045260246000fd5b50919050565b601f8211156200094057600081815260208120601f850160051c810160208610156200091b5750805b601f850160051c820191505b818110156200093c5782815560010162000927565b5050505b505050565b81516001600160401b0381111562000961576200096162000537565b6200097981620009728454620008b6565b84620008f2565b602080601f831160018114620009b15760008415620009985750858301515b600019600386901b1c1916600185901b1785556200093c565b600085815260208120601f198616915b82811015620009e257888601518255948401946001909101908401620009c1565b508582101562000a015787850151600019600388901b60f8161c191681555b5050505050600190811b01905550565b634e487b7160e01b600052603260045260246000fd5b634e487b7160e01b600052601160045260246000fd5b8082018082111562000a535762000a5362000a27565b92915050565b60006001820162000a6e5762000a6e62000a27565b5060010190565b600081518084526020808501945080840160005b8381101562000aa75781518752958201959082019060010162000a89565b509495945050505050565b6060815260008451806060840152602062000ad48260808601838a0162000580565b6080601f19601f9390930192909216840184810383018583015286519281018390528682019260009160a001905b8083101562000b2d5784516001600160a01b0316825293830193600192909201919083019062000b02565b50858103604087015262000b42818862000a75565b9998505050505050505050565b612ca68062000b5f6000396000f3fe6080604052600436106101d15760003560e01c80637365755d116100f7578063997072f711610095578063efca2eed11610064578063efca2eed146105a2578063f12c1147146105b8578063f28bddf6146105cd578063f326206b146105fa57600080fd5b8063997072f714610528578063a0ef4d0e1461053d578063a230c52414610552578063bffc243d1461058257600080fd5b80638456cb59116100d15780638456cb5914610486578063851ad4421461049b578063885197e3146104da5780639386775a146104ed57600080fd5b80637365755d1461042f5780637943da691461044f5780637a66d55e1461046457600080fd5b80635aef573c1161016f578063683578261161013e57806368357826146103905780636cb0adba146103b05780636cc6cde1146103e15780636dfa8d991461041957600080fd5b80635aef573c146102fb5780635c975abb1461031b5780635daf08ca1461033f5780635fa91dc21461037057600080fd5b80633bcff3b0116101ab5780633bcff3b0146102775780633dd352791461028c5780633f4ba83a146102b957806342c549c0146102ce57600080fd5b8063107046bd146101f557806322faa41f1461023257806334b25ee21461025557600080fd5b366101f05734600a60008282546101e89190612387565b925050819055005b600080fd5b34801561020157600080fd5b506102156102103660046123a0565b61061a565b60405161022998979695949392919061241f565b60405180910390f35b34801561023e57600080fd5b5061024761070c565b604051908152602001610229565b34801561026157600080fd5b50610275610270366004612490565b610770565b005b34801561028357600080fd5b50600854610247565b34801561029857600080fd5b506102476102a73660046124e1565b60066020526000908152604090205481565b3480156102c557600080fd5b506102756109a9565b3480156102da57600080fd5b506102ee6102e93660046123a0565b6109e2565b6040516102299190612503565b34801561030757600080fd5b5061027561031636600461265c565b610b28565b34801561032757600080fd5b5060015460ff165b6040519015158152602001610229565b34801561034b57600080fd5b5061035f61035a3660046123a0565b610c81565b6040516102299594939291906126a3565b34801561037c57600080fd5b5061024761038b366004612773565b610d5b565b34801561039c57600080fd5b506102756103ab366004612885565b611131565b3480156103bc57600080fd5b506103d06103cb3660046128dc565b6112ec565b6040516102299594939291906128fe565b3480156103ed57600080fd5b50600454610401906001600160a01b031681565b6040516001600160a01b039091168152602001610229565b34801561042557600080fd5b50610247600a5481565b34801561043b57600080fd5b5061027561044a3660046124e1565b6113d7565b34801561045b57600080fd5b50610275611583565b34801561047057600080fd5b50610479611609565b604051610229919061293e565b34801561049257600080fd5b50610275611697565b3480156104a757600080fd5b50600554600854600a54600b5460408051948552602085019390935291830152606082015247608082015260a001610229565b6102756104e83660046123a0565b6116ce565b3480156104f957600080fd5b5061032f610508366004612951565b600c60209081526000928352604080842090915290825290205460ff1681565b34801561053457600080fd5b50600554610247565b34801561054957600080fd5b50610247603381565b34801561055e57600080fd5b5061032f61056d3660046124e1565b60076020526000908152604090205460ff1681565b34801561058e57600080fd5b5061027561059d3660046124e1565b61186d565b3480156105ae57600080fd5b50610247600b5481565b3480156105c457600080fd5b50610479611922565b3480156105d957600080fd5b506102476105e83660046123a0565b600d6020526000908152604090205481565b34801561060657600080fd5b506102756106153660046128dc565b61192f565b6008818154811061062a57600080fd5b906000526020600020906008020160009150905080600001805461064d9061297d565b80601f01602080910402602001604051908101604052809291908181526020018280546106799061297d565b80156106c65780601f1061069b576101008083540402835291602001916106c6565b820191906000526020600020905b8154815290600101906020018083116106a957829003601f168201915b5050505060018301546002840154600385015460048601546005870154600688015460079098015496976001600160a01b03909516969395509193909260ff9091169088565b600080805b60055481101561076a576005818154811061072e5761072e6129b1565b600091825260209091206003600590920201015460ff16156107585781610754816129c7565b9250505b80610762816129c7565b915050610711565b50919050565b6004546001600160a01b031633146107c05760405162461bcd60e51b815260206004820152600e60248201526d2737ba1030b93134ba3930ba37b960911b60448201526064015b60405180910390fd5b6107c8611b65565b60085482106107e95760405162461bcd60e51b81526004016107b7906129e0565b6000600883815481106107fe576107fe6129b1565b6000918252602090912060089091020190506002600682015460ff16600381111561082b5761082b612409565b146108675760405162461bcd60e51b815260206004820152600c60248201526b139bdd08191a5cdc1d5d195960a21b60448201526064016107b7565b81156109315760038101541561091d5760038101805460009182905560018301546040519192916001600160a01b039091169083908381818185875af1925050503d80600081146108d4576040519150601f19603f3d011682016040523d82523d6000602084013e6108d9565b606091505b505090508061091a5760405162461bcd60e51b815260206004820152600d60248201526c1499599d5b990819985a5b1959609a1b60448201526064016107b7565b50505b60068101805460ff19166003179055610960565b600381015415610950576109488160030154611b8f565b600060038201555b60068101805460ff191660011790555b6040805184815283151560208201527f5a87909bff68caaaaf0b3fd9c74eeccc928832f879315e5c6fb7a73612f26c0c910160405180910390a1506109a56001600055565b5050565b3360009081526007602052604090205460ff166109d85760405162461bcd60e51b81526004016107b790612a09565b6109e0611d31565b565b606060096000838152602001908152602001600020805480602002602001604051908101604052809291908181526020016000905b82821015610b1d57838290600052602060002090600302016040518060a0016040529081600082018054610a4a9061297d565b80601f0160208091040260200160405190810160405280929190818152602001828054610a769061297d565b8015610ac35780601f10610a9857610100808354040283529160200191610ac3565b820191906000526020600020905b815481529060010190602001808311610aa657829003601f168201915b505050918352505060018281015460208084019190915260029093015460ff80821615156040850152610100820416151560608401526201000090046001600160a01b031660809092019190915291835292019101610a17565b505050509050919050565b6008548210610b495760405162461bcd60e51b81526004016107b7906129e0565b600060088381548110610b5e57610b5e6129b1565b6000918252602090912060089091020160018101549091506001600160a01b0316331480610b9b57503360009081526007602052604090205460ff165b610bd85760405162461bcd60e51b815260206004820152600e60248201526d139bdd08185d5d1a1bdc9a5e995960921b60448201526064016107b7565b6000600682015460ff166003811115610bf357610bf3612409565b14610c315760405162461bcd60e51b815260206004820152600e60248201526d43616e6e6f74206469737075746560901b60448201526064016107b7565b60068101805460ff191660021790556040517f1b84372106d77c6daea0dda35bbc0229d10a83f58ec89909288492519368234190610c7490859033908690612a2f565b60405180910390a1505050565b60058181548110610c9157600080fd5b6000918252602090912060059091020180546001820180546001600160a01b03909216935090610cc09061297d565b80601f0160208091040260200160405190810160405280929190818152602001828054610cec9061297d565b8015610d395780601f10610d0e57610100808354040283529160200191610d39565b820191906000526020600020905b815481529060010190602001808311610d1c57829003601f168201915b50505050600283015460038401546004909401549293909260ff909116915085565b3360009081526007602052604081205460ff16610d8a5760405162461bcd60e51b81526004016107b790612a09565b610d92611d83565b8151835114610dd75760405162461bcd60e51b8152602060048201526011602482015270082e4e4c2f2e640daeae6e840dac2e8c6d607b1b60448201526064016107b7565b6001600160a01b038516610e1e5760405162461bcd60e51b815260206004820152600e60248201526d125b9d985b1a590818db1a595b9d60921b60448201526064016107b7565b6000805b8351811015610e6457838181518110610e3d57610e3d6129b1565b602002602001015182610e509190612387565b915080610e5c816129c7565b915050610e22565b50848114610eb45760405162461bcd60e51b815260206004820152601c60248201527f4d696c6573746f6e6573206d7573742073756d20746f20746f74616c0000000060448201526064016107b7565b6008805460408051610100810182528a81526001600160a01b038a1660208201529081018890526000606082018190528751608083015260a0820181905260c082018190524260e08301526001830184558390528051919290919083027ff3f7a9fe364faab93b216da50a3214154f22a0a2b415b23a84c8169e8b636ee301908190610f409082612ab0565b5060208201518160010160006101000a8154816001600160a01b0302191690836001600160a01b0316021790555060408201518160020155606082015181600301556080820151816004015560a0820151816005015560c08201518160060160006101000a81548160ff02191690836003811115610fc057610fc0612409565b021790555060e08201518160070155505060005b85518110156110e857600960008381526020019081526020016000206040518060a0016040528088848151811061100d5761100d6129b1565b6020026020010151815260200187848151811061102c5761102c6129b1565b602090810291909101810151825260008282018190526040830181905260609092018290528354600181018555938252902081519192600302019081906110739082612ab0565b506020820151600182015560408201516002909101805460608401516080909401516001600160a01b0316620100000262010000600160b01b03199415156101000261ff00199415159490941661ffff19909216919091179290921792909216179055806110e0816129c7565b915050610fd4565b507fa026ee65bff24e0219543a4cec2746ef952b145e2658ac5db36953d7044712a98189898960405161111e9493929190612b70565b60405180910390a1979650505050505050565b3360009081526007602052604090205460ff166111605760405162461bcd60e51b81526004016107b790612a09565b6001600160a01b03831660009081526007602052604090205460ff16156111bc5760405162461bcd60e51b815260206004820152601060248201526f20b63932b0b23c90309036b2b6b132b960811b60448201526064016107b7565b6000811180156111cd575061138881105b61120a5760405162461bcd60e51b815260206004820152600e60248201526d496e76616c69642073686172657360901b60448201526064016107b7565b600083838360405160200161122193929190612ba5565b60408051601f1981840301815291815281516020928301206000818152600c845282812033825290935291205490915060ff16611298576000818152600c602090815260408083203384528252808320805460ff19166001179055838352600d9091528120805491611292836129c7565b91905055505b6005546000906064906112ad90603390612bf0565b6112b79190612c07565b9050806000036112c5575060015b6000828152600d602052604090205481116112e5576112e5858585611da7565b5050505050565b6009602052816000526040600020818154811061130857600080fd5b90600052602060002090600302016000915091505080600001805461132c9061297d565b80601f01602080910402602001604051908101604052809291908181526020018280546113589061297d565b80156113a55780601f1061137a576101008083540402835291602001916113a5565b820191906000526020600020905b81548152906001019060200180831161138857829003601f168201915b50505050600183015460029093015491929160ff8082169250610100820416906201000090046001600160a01b031685565b3360009081526007602052604090205460ff166114065760405162461bcd60e51b81526004016107b790612a09565b6001600160a01b03811660009081526007602052604090205460ff1661143e5760405162461bcd60e51b81526004016107b790612a09565b336001600160a01b0382160361148b5760405162461bcd60e51b815260206004820152601260248201527121b0b73737ba103932b6b7bb329039b2b63360711b60448201526064016107b7565b6040516552454d4f564560d01b60208201526bffffffffffffffffffffffff19606083901b166026820152600090603a0160408051601f1981840301815291815281516020928301206000818152600c845282812033825290935291205490915060ff16611533576000818152600c602090815260408083203384528252808320805460ff19166001179055838352600d909152812080549161152d836129c7565b91905055505b60055460009060649061154890603390612bf0565b6115529190612c07565b905080600003611560575060015b6000828152600d6020526040902054811161157e5761157e83611fd5565b505050565b3360009081526007602052604090205460ff166115b25760405162461bcd60e51b81526004016107b790612a09565b6115ba611b65565b47806115f55760405162461bcd60e51b815260206004820152600a6024820152694e6f2062616c616e636560b01b60448201526064016107b7565b6115fe81611b8f565b506109e06001600055565b600380546116169061297d565b80601f01602080910402602001604051908101604052809291908181526020018280546116429061297d565b801561168f5780601f106116645761010080835404028352916020019161168f565b820191906000526020600020905b81548152906001019060200180831161167257829003601f168201915b505050505081565b3360009081526007602052604090205460ff166116c65760405162461bcd60e51b81526004016107b790612a09565b6109e0612225565b6116d6611d83565b6116de611b65565b60085481106116ff5760405162461bcd60e51b81526004016107b7906129e0565b600060088281548110611714576117146129b1565b6000918252602090912060089091020160018101549091506001600160a01b031633146117745760405162461bcd60e51b815260206004820152600e60248201526d139bdd081d1a194818db1a595b9d60921b60448201526064016107b7565b6000600682015460ff16600381111561178f5761178f612409565b14806117b357506001600682015460ff1660038111156117b1576117b1612409565b145b6117ec5760405162461bcd60e51b815260206004820152600a60248201526943616e6e6f742070617960b01b60448201526064016107b7565b348160030160008282546118009190612387565b9250508190555034600a60008282546118199190612387565b9091555050604080518381523460208201527f4edf5b39e08b0c159ffd68891bacf2cc9020b9d4e9e807b91f94fe88c4435388910160405180910390a161185f82612260565b5061186a6001600055565b50565b6004546001600160a01b031633146118b85760405162461bcd60e51b815260206004820152600e60248201526d2737ba1030b93134ba3930ba37b960911b60448201526064016107b7565b6001600160a01b0381166119005760405162461bcd60e51b815260206004820152600f60248201526e496e76616c6964206164647265737360881b60448201526064016107b7565b600480546001600160a01b0319166001600160a01b0392909216919091179055565b600280546116169061297d565b3360009081526007602052604090205460ff1661195e5760405162461bcd60e51b81526004016107b790612a09565b611966611d83565b60085482106119875760405162461bcd60e51b81526004016107b7906129e0565b60006008838154811061199c5761199c6129b1565b6000918252602082206008909102019150600682015460ff1660038111156119c6576119c6612409565b14611a085760405162461bcd60e51b815260206004820152601260248201527150726f6a656374206e6f742061637469766560701b60448201526064016107b7565b80600401548210611a4f5760405162461bcd60e51b8152602060048201526011602482015270496e76616c6964206d696c6573746f6e6560781b60448201526064016107b7565b6000838152600960205260408120805484908110611a6f57611a6f6129b1565b60009182526020909120600390910201600281015490915060ff1615611acb5760405162461bcd60e51b8152602060048201526011602482015270105b1c9958591e4818dbdb5c1b195d1959607a1b60448201526064016107b7565b60028101805462010000330261ff01600160b01b0319909116176001179055600582018054906000611afc836129c7565b90915550506040805185815260208101859052338183015290517f5142be5dffcf006606e1b0e030730d45f5cd24edfb7566efc3dc188625ac3e9c9181900360600190a18160040154826005015403611b5f5760068201805460ff191660011790555b50505050565b600260005403611b8857604051633ee5aeb560e01b815260040160405180910390fd5b6002600055565b60005b600554811015611cde5760058181548110611baf57611baf6129b1565b600091825260209091206003600590920201015460ff1615611ccc57600061271060058381548110611be357611be36129b1565b90600052602060002090600502016002015484611c009190612bf0565b611c0a9190612c07565b90508015611cca57600060058381548110611c2757611c276129b1565b600091825260208220600590910201546040516001600160a01b039091169184919081818185875af1925050503d8060008114611c80576040519150601f19603f3d011682016040523d82523d6000602084013e611c85565b606091505b5050905080611cc85760405162461bcd60e51b815260206004820152600f60248201526e151c985b9cd9995c8819985a5b1959608a1b60448201526064016107b7565b505b505b80611cd6816129c7565b915050611b92565b5080600b6000828254611cf19190612387565b9091555050604080518281524260208201527ff2838e4b541f90d41a1076a560d75e948f7d1008e72118a655568626a30b451f910160405180910390a150565b611d3961234e565b6001805460ff191690557f5db9ee0a495bf2e6ff9c91a7834c1ba4fdd244a5e8aa4e537bd38aeae4b073aa335b6040516001600160a01b03909116815260200160405180910390a1565b60015460ff16156109e05760405163d93c066560e01b815260040160405180910390fd5b8060005b600554811015611e725760058181548110611dc857611dc86129b1565b600091825260209091206003600590920201015460ff1615611e6057600061271060058381548110611dfc57611dfc6129b1565b90600052602060002090600502016002015484611e199190612bf0565b611e239190612c07565b90508060058381548110611e3957611e396129b1565b90600052602060002090600502016002016000828254611e599190612c29565b9091555050505b80611e6a816129c7565b915050611dab565b506040805160a0810182526001600160a01b03868116825260208201868152928201859052600160608301819052426080840152600580549182018155600081905283517f036b6384b5eca791c62761152d0c79bb0604c104a5fb6f4eb0703f3154bb3db09290910291820180546001600160a01b031916919093161782559251919290917f036b6384b5eca791c62761152d0c79bb0604c104a5fb6f4eb0703f3154bb3db190910190611f269082612ab0565b5060408201516002820155606082015160038201805460ff1916911515919091179055608090910151600490910155600554611f6490600190612c29565b6001600160a01b03851660009081526006602090815260408083209390935560079052819020805460ff19166001179055517fac4f9610b174640b0a902ce555faa384cc9c9d291750f76e476f26f97bd079b490611fc790869086908690612c3c565b60405180910390a150505050565b6001600160a01b0381166000908152600660205260408120546005805491929183908110612005576120056129b1565b906000526020600020906005020160020154905060006005838154811061202e5761202e6129b1565b906000526020600020906005020160030160006101000a81548160ff02191690831515021790555060006005838154811061206b5761206b6129b1565b60009182526020808320600260059093020191909101929092556001600160a01b0385168152600790915260408120805460ff19169055805b60055481101561212257600581815481106120c1576120c16129b1565b600091825260209091206003600590920201015460ff161561211057600581815481106120f0576120f06129b1565b9060005260206000209060050201600201548261210d9190612387565b91505b8061211a816129c7565b9150506120a4565b5060005b6005548110156121eb5760058181548110612143576121436129b1565b600091825260209091206003600590920201015460ff16156121d95760008260058381548110612175576121756129b1565b906000526020600020906005020160020154856121929190612bf0565b61219c9190612c07565b905080600583815481106121b2576121b26129b1565b906000526020600020906005020160020160008282546121d29190612387565b9091555050505b806121e3816129c7565b915050612126565b506040516001600160a01b03851681527f6e76fb4c77256006d9c38ec7d82b45a8c8f3c27b1d6766fffc42dfb8de68449290602001611fc7565b61222d611d83565b6001805460ff1916811790557f62e78cea01bee320cd4e420270b5ea74000d11b0c9f74754ebdbfc544b05a25833611d66565b600060088281548110612275576122756129b1565b9060005260206000209060080201905060005b816004015481101561157e5760008381526009602052604081208054839081106122b4576122b46129b1565b60009182526020909120600390910201600281015490915060ff1680156122e557506002810154610100900460ff16155b80156122f957508060010154836003015410155b1561233b5760028101805461ff0019166101001790556001810154600384018054600090612328908490612c29565b9091555050600181015461233b90611b8f565b5080612346816129c7565b915050612288565b60015460ff166109e057604051638dfc202b60e01b815260040160405180910390fd5b634e487b7160e01b600052601160045260246000fd5b8082018082111561239a5761239a612371565b92915050565b6000602082840312156123b257600080fd5b5035919050565b60005b838110156123d45781810151838201526020016123bc565b50506000910152565b600081518084526123f58160208601602086016123b9565b601f01601f19169290920160200192915050565b634e487b7160e01b600052602160045260246000fd5b60006101008083526124338184018c6123dd565b91505060018060a01b03891660208301528760408301528660608301528560808301528460a08301526004841061247a57634e487b7160e01b600052602160045260246000fd5b60c082019390935260e001529695505050505050565b600080604083850312156124a357600080fd5b82359150602083013580151581146124ba57600080fd5b809150509250929050565b80356001600160a01b03811681146124dc57600080fd5b919050565b6000602082840312156124f357600080fd5b6124fc826124c5565b9392505050565b60006020808301818452808551808352604092508286019150828160051b87010184880160005b8381101561259757603f19898403018552815160a08151818652612550828701826123dd565b838b0151878c01528984015115158a8801526060808501511515908801526080938401516001600160a01b031693909601929092525050938601939086019060010161252a565b509098975050505050505050565b634e487b7160e01b600052604160045260246000fd5b604051601f8201601f1916810167ffffffffffffffff811182821017156125e4576125e46125a5565b604052919050565b600082601f8301126125fd57600080fd5b813567ffffffffffffffff811115612617576126176125a5565b61262a601f8201601f19166020016125bb565b81815284602083860101111561263f57600080fd5b816020850160208301376000918101602001919091529392505050565b6000806040838503121561266f57600080fd5b82359150602083013567ffffffffffffffff81111561268d57600080fd5b612699858286016125ec565b9150509250929050565b6001600160a01b038616815260a0602082018190526000906126c7908301876123dd565b604083019590955250911515606083015260809091015292915050565b600067ffffffffffffffff8211156126fe576126fe6125a5565b5060051b60200190565b600082601f83011261271957600080fd5b8135602061272e612729836126e4565b6125bb565b82815260059290921b8401810191818101908684111561274d57600080fd5b8286015b848110156127685780358352918301918301612751565b509695505050505050565b600080600080600060a0868803121561278b57600080fd5b853567ffffffffffffffff808211156127a357600080fd5b6127af89838a016125ec565b9650602091506127c08289016124c5565b9550604088013594506060880135818111156127db57600080fd5b8801601f81018a136127ec57600080fd5b80356127fa612729826126e4565b81815260059190911b8201840190848101908c83111561281957600080fd5b8584015b83811015612851578035868111156128355760008081fd5b6128438f89838901016125ec565b84525091860191860161281d565b509650505050608088013591508082111561286b57600080fd5b5061287888828901612708565b9150509295509295909350565b60008060006060848603121561289a57600080fd5b6128a3846124c5565b9250602084013567ffffffffffffffff8111156128bf57600080fd5b6128cb868287016125ec565b925050604084013590509250925092565b600080604083850312156128ef57600080fd5b50508035926020909101359150565b60a08152600061291160a08301886123dd565b602083019690965250921515604084015290151560608301526001600160a01b0316608090910152919050565b6020815260006124fc60208301846123dd565b6000806040838503121561296457600080fd5b82359150612974602084016124c5565b90509250929050565b600181811c9082168061299157607f821691505b60208210810361076a57634e487b7160e01b600052602260045260246000fd5b634e487b7160e01b600052603260045260246000fd5b6000600182016129d9576129d9612371565b5060010190565b6020808252600f908201526e125b9d985b1a59081c1c9bda9958dd608a1b604082015260600190565b6020808252600c908201526b2737ba10309036b2b6b132b960a11b604082015260600190565b8381526001600160a01b0383166020820152606060408201819052600090612a59908301846123dd565b95945050505050565b601f82111561157e57600081815260208120601f850160051c81016020861015612a895750805b601f850160051c820191505b81811015612aa857828155600101612a95565b505050505050565b815167ffffffffffffffff811115612aca57612aca6125a5565b612ade81612ad8845461297d565b84612a62565b602080601f831160018114612b135760008415612afb5750858301515b600019600386901b1c1916600185901b178555612aa8565b600085815260208120601f198616915b82811015612b4257888601518255948401946001909101908401612b23565b5085821015612b605787850151600019600388901b60f8161c191681555b5050505050600190811b01905550565b848152608060208201526000612b8960808301866123dd565b6001600160a01b03949094166040830152506060015292915050565b6210511160ea1b81526bffffffffffffffffffffffff198460601b16600382015260008351612bdb8160178501602088016123b9565b60179201918201929092526037019392505050565b808202811582820484141761239a5761239a612371565b600082612c2457634e487b7160e01b600052601260045260246000fd5b500490565b8181038181111561239a5761239a612371565b6001600160a01b0384168152606060208201819052600090612c60908301856123dd565b905082604083015294935050505056fea26469706673582212202d00851e5475d24c5e527a3583c0293fd5e63bc28f09865b10691fce47ef472664736f6c63430008140033",
  "linkReferences": {},
  "deployedLinkReferences": {}
}