{
  "_format": "hh-sol-artifact-1",
  "contractName": "JobEscrow",
  "sourceName": "contracts/JobEscrow.sol",
  "abi": [
    {
      "inputs": [
        {
          "internalType": "address",
          "name": "_arbitrator",
          "type": "address"
        },
        {
          "internalType": "address",
          "name": "_feeCollector",
          "type": "address"
        }
      ],
      "stateMutability": "nonpayable",
      "type": "constructor"
    },
    {
      "inputs": [],
      "name": "EnforcedPause",
      "type": "error"
    },
    {
      "inputs": [],
      "name": "ExpectedPause",
      "type": "error"
    },
    {
      "inputs": [],
      "name": "ReentrancyGuardReentrantCall",
      "type": "error"
    },
    {
      "anonymous": false,
      "inputs": [
        {
          "indexed": true,
          "internalType": "uint256",
          "name": "jobIndex",
          "type": "uint256"
        },
        {
          "indexed": false,
          "internalType": "bool",
          "name": "clientWins",
          "type": "bool"
        },
        {
          "indexed": false,
          "internalType": "uint256",
          "name": "clientRefund",
          "type": "uint256"
        },
        {
          "indexed": false,
          "internalType": "uint256",
          "name": "agentPayout",
          "type": "uint256"
        }
      ],
      "name": "DisputeResolved",
      "type": "event"
    },
    {
      "anonymous": false,
      "inputs": [
        {
          "indexed": true,
          "internalType": "uint256",
          "name": "jobIndex",
          "type": "uint256"
        },
        {
          "indexed": false,
          "internalType": "address",
          "name": "agent",
          "type": "address"
        },
        {
          "indexed": false,
          "internalType": "address",
          "name": "agentCoop",
          "type": "address"
        }
      ],
      "name": "JobAccepted",
      "type": "event"
    },
    {
      "anonymous": false,
      "inputs": [
        {
          "indexed": true,
          "internalType": "uint256",
          "name": "jobIndex",
          "type": "uint256"
        }
      ],
      "name": "JobAutoReleased",
      "type": "event"
    },
    {
      "anonymous": false,
      "inputs": [
        {
          "indexed": true,
          "internalType": "uint256",
          "name": "jobIndex",
          "type": "uint256"
        }
      ],
      "name": "JobCancelled",
      "type": "event"
    },
    {
      "anonymous": false,
      "inputs": [
        {
          "indexed": true,
          "internalType": "uint256",
          "name": "jobIndex",
          "type": "uint256"
        },
        {
          "indexed": false,
          "internalType": "uint256",
          "name": "agentPayout",
          "type": "uint256"
        },
        {
          "indexed": false,
          "internalType": "uint256",
          "name": "fee",
          "type": "uint256"
        }
      ],
      "name": "JobCompleted",
      "type": "event"
    },
    {
      "anonymous": false,
      "inputs": [
        {
          "indexed": true,
          "internalType": "uint256",
          "name": "jobIndex",
          "type": "uint256"
        },
        {
          "indexed": false,
          "internalType": "string",
          "name": "jobId",
          "type": "string"
        },
        {
          "indexed": false,
          "internalType": "address",
          "name": "client",
          "type": "address"
        },
        {
          "indexed": false,
          "internalType": "uint256",
          "name": "amount",
          "type": "uint256"
        }
      ],
      "name": "JobCreated",
      "type": "event"
    },
    {
      "anonymous": false,
      "inputs": [
        {
          "indexed": true,
          "internalType": "uint256",
          "name": "jobIndex",
          "type": "uint256"
        },
        {
          "indexed": false,
          "internalType": "string",
          "name": "deliverableHash",
          "type": "string"
        }
      ],
      "name": "JobDelivered",
      "type": "event"
    },
    {
      "anonymous": false,
      "inputs": [
        {
          "indexed": true,
          "internalType": "uint256",
          "name": "jobIndex",
          "type": "uint256"
        },
        {
          "indexed": false,
          "internalType": "address",
          "name": "disputedBy",
          "type": "address"
        },
        {
          "indexed": false,
          "internalType": "string",
          "name": "reason",
          "type": "string"
        }
      ],
      "name": "JobDisputed",
      "type": "event"
    },
    {
      "anonymous": false,
      "inputs": [
        {
          "indexed": false,
          "internalType": "address",
          "name": "account",
          "type": "address"
        }
      ],
      "name": "Paused",
      "type": "event"
    },
    {
      "anonymous": false,
      "inputs": [
        {
          "indexed": false,
          "internalType": "address",
          "name": "account",
          "type": "address"
        }
      ],
      "name": "Unpaused",
      "type": "event"
    },
    {
      "inputs": [
        {
          "internalType": "uint256",
          "name": "_jobIndex",
          "type": "uint256"
        },
        {
          "internalType": "address",
          "name": "_agentCoop",
          "type": "address"
        }
      ],
      "name": "acceptJob",
      "outputs": [],
      "stateMutability": "nonpayable",
      "type": "function"
    },
    {
      "inputs": [
        {
          "internalType": "address",
          "name": "",
          "type": "address"
        },
        {
          "internalType": "uint256",
          "name": "",
          "type": "uint256"
        }
      ],
      "name": "agentJobs",
      "outputs": [
        {
          "internalType": "uint256",
          "name": "",
          "type": "uint256"
        }
      ],
      "stateMutability": "view",
      "type": "function"
    },
    {
      "inputs": [
        {
          "internalType": "uint256",
          "name": "_jobIndex",
          "type": "uint256"
        }
      ],
      "name": "approveDelivery",
      "outputs": [],
      "stateMutability": "nonpayable",
      "type": "function"
    },
    {
      "inputs": [],
      "name": "arbitrator",
      "outputs": [
        {
          "internalType": "address",
          "name": "",
          "type": "address"
        }
      ],
      "stateMutability": "view",
      "type": "function"
    },
    {
      "inputs": [
        {
          "internalType": "uint256",
          "name": "_jobIndex",
          "type": "uint256"
        }
      ],
      "name": "cancelJob",
      "outputs": [],
      "stateMutability": "nonpayable",
      "type": "function"
    },
    {
      "inputs": [
        {
          "internalType": "uint256",
          "name": "_jobIndex",
          "type": "uint256"
        }
      ],
      "name": "claimAfterDeadline",
      "outputs": [],
      "stateMutability": "nonpayable",
      "type": "function"
    },
    {
      "inputs": [
        {
          "internalType": "address",
          "name": "",
          "type": "address"
        },
        {
          "internalType": "uint256",
          "name": "",
          "type": "uint256"
        }
      ],
      "name": "clientJobs",
      "outputs": [
        {
          "internalType": "uint256",
          "name": "",
          "type": "uint256"
        }
      ],
      "stateMutability": "view",
      "type": "function"
    },
    {
      "inputs": [
        {
          "internalType": "string",
          "name": "_jobId",
          "type": "string"
        }
      ],
      "name": "createJob",
      "outputs": [
        {
          "internalType": "uint256",
          "name": "",
          "type": "uint256"
        }
      ],
      "stateMutability": "payable",
      "type": "function"
    },
    {
      "inputs": [
        {
          "internalType": "uint256",
          "name": "_jobIndex",
          "type": "uint256"
        },
        {
          "internalType": "string",
          "name": "_deliverableHash",
          "type": "string"
        }
      ],
      "name": "deliverWork",
      "outputs": [],
      "stateMutability": "nonpayable",
      "type": "function"
    },
    {
      "inputs": [],
      "name": "disputePeriod",
      "outputs": [
        {
          "internalType": "uint256",
          "name": "",
          "type": "uint256"
        }
      ],
      "stateMutability": "view",
      "type": "function"
    },
    {
      "inputs": [],
      "name": "emergencyWithdraw",
      "outputs": [],
      "stateMutability": "nonpayable",
      "type": "function"
    },
    {
      "inputs": [],
      "name": "feeCollector",
      "outputs": [
        {
          "internalType": "address",
          "name": "",
          "type": "address"
        }
      ],
      "stateMutability": "view",
      "type": "function"
    },
    {
      "inputs": [
        {
          "internalType": "address",
          "name": "_agent",
          "type": "address"
        }
      ],
      "name": "getAgentJobs",
      "outputs": [
        {
          "internalType": "uint256[]",
          "name": "",
          "type": "uint256[]"
        }
      ],
      "stateMutability": "view",
      "type": "function"
    },
    {
      "inputs": [
        {
          "internalType": "address",
          "name": "_client",
          "type": "address"
        }
      ],
      "name": "getClientJobs",
      "outputs": [
        {
          "internalType": "uint256[]",
          "name": "",
          "type": "uint256[]"
        }
      ],
      "stateMutability": "view",
      "type": "function"
    },
    {
      "inputs": [
        {
          "internalType": "uint256",
          "name": "_jobIndex",
          "type": "uint256"
        }
      ],
      "name": "getJob",
      "outputs": [
        {
          "components": [
            {
              "internalType": "string",
              "name": "jobId",
              "type": "string"
            },
            {
              "internalType": "address",
              "name": "client",
              "type": "address"
            },
            {
              "internalType": "address",
              "name": "agent",
              "type": "address"
            },
            {
              "internalType": "address",
              "name": "agentCoop",
              "type": "address"
            },
            {
              "internalType": "uint256",
              "name": "amount",
              "type": "uint256"
            },
            {
              "internalType": "uint256",
              "name": "platformFee",
              "type": "uint256"
            },
            {
              "internalType": "uint256",
              "name": "createdAt",
              "type": "uint256"
            },
            {
              "internalType": "uint256",
              "name": "acceptedAt",
              "type": "uint256"
            },
            {
              "internalType": "uint256",
              "name": "completedAt",
              "type": "uint256"
            },
            {
              "internalType": "uint256",
              "name": "disputeDeadline",
              "type": "uint256"
            },
            {
              "internalType": "enum JobEscrow.JobStatus",
              "name": "status",
              "type": "uint8"
            },
            {
              "internalType": "string",
              "name": "deliverableHash",
              "type": "string"
            }
          ],
          "internalType": "struct JobEscrow.Job",
          "name": "",
          "type": "tuple"
        }
      ],
      "stateMutability": "view",
      "type": "function"
    },
    {
      "inputs": [],
      "name": "getPlatformStats",
      "outputs": [
        {
          "internalType": "uint256",
          "name": "totalJobs",
          "type": "uint256"
        },
        {
          "internalType": "uint256",
          "name": "volume",
          "type": "uint256"
        },
        {
          "internalType": "uint256",
          "name": "fees",
          "type": "uint256"
        },
        {
          "internalType": "uint256",
          "name": "balance",
          "type": "uint256"
        }
      ],
      "stateMutability": "view",
      "type": "function"
    },
    {
      "inputs": [],
      "name": "jobCount",
      "outputs": [
        {
          "internalType": "uint256",
          "name": "",
          "type": "uint256"
        }
      ],
      "stateMutability": "view",
      "type": "function"
    },
    {
      "inputs": [
        {
          "internalType": "uint256",
          "name": "",
          "type": "uint256"
        }
      ],
      "name": "jobs",
      "outputs": [
        {
          "internalType": "string",
          "name": "jobId",
          "type": "string"
        },
        {
          "internalType": "address",
          "name": "client",
          "type": "address"
        },
        {
          "internalType": "address",
          "name": "agent",
          "type": "address"
        },
        {
          "internalType": "address",
          "name": "agentCoop",
          "type": "address"
        },
        {
          "internalType": "uint256",
          "name": "amount",
          "type": "uint256"
        },
        {
          "internalType": "uint256",
          "name": "platformFee",
          "type": "uint256"
        },
        {
          "internalType": "uint256",
          "name": "createdAt",
          "type": "uint256"
        },
        {
          "internalType": "uint256",
          "name": "acceptedAt",
          "type": "uint256"
        },
        {
          "internalType": "uint256",
          "name": "completedAt",
          "type": "uint256"
        },
        {
          "internalType": "uint256",
          "name": "disputeDeadline",
          "type": "uint256"
        },
        {
          "internalType": "enum JobEscrow.JobStatus",
          "name": "status",
          "type": "uint8"
        },
        {
          "internalType": "string",
          "name": "deliverableHash",
          "type": "string"
        }
      ],
      "stateMutability": "view",
      "type": "function"
    },
    {
      "inputs": [],
      "name": "minJobAmount",
      "outputs": [
        {
          "internalType": "uint256",
          "name": "",
          "type": "uint256"
        }
      ],
      "stateMutability": "view",
      "type": "function"
    },
    {
      "inputs": [],
      "name": "owner",
      "outputs": [
        {
          "internalType": "address",
          "name": "",
          "type": "address"
        }
      ],
      "stateMutability": "view",
      "type": "function"
    },
    {
      "inputs": [],
      "name": "pause",
      "outputs": [],
      "stateMutability": "nonpayable",
      "type": "function"
    },
    {
      "inputs": [],
      "name": "paused",
      "outputs": [
        {
          "internalType": "bool",
          "name": "",
          "type": "bool"
        }
      ],
      "stateMutability": "view",
      "type": "function"
    },
    {
      "inputs": [],
      "name": "platformFeeBps",
      "outputs": [
        {
          "internalType": "uint256",
          "name": "",
          "type": "uint256"
        }
      ],
      "stateMutability": "view",
      "type": "function"
    },
    {
      "inputs": [
        {
          "internalType": "uint256",
          "name": "_jobIndex",
          "type": "uint256"
        },
        {
          "internalType": "string",
          "name": "_reason",
          "type": "string"
        }
      ],
      "name": "raiseDispute",
      "outputs": [],
      "stateMutability": "nonpayable",
      "type": "function"
    },
    {
      "inputs": [
        {
          "internalType": "uint256",
          "name": "_jobIndex",
          "type": "uint256"
        },
        {
          "internalType": "uint256",
          "name": "_clientPercentage",
          "type": "uint256"
        }
      ],
      "name": "resolveDispute",
      "outputs": [],
      "stateMutability": "nonpayable",
      "type": "function"
    },
    {
      "inputs": [],
      "name": "totalFees",
      "outputs": [
        {
          "internalType": "uint256",
          "name": "",
          "type": "uint256"
        }
      ],
      "stateMutability": "view",
      "type": "function"
    },
    {
      "inputs": [],
      "name": "totalVolume",
      "outputs": [
        {
          "internalType": "uint256",
          "name": "",
          "type": "uint256"
        }
      ],
      "stateMutability": "view",
      "type": "function"
    },
    {
      "inputs": [],
      "name": "unpause",
      "outputs": [],
      "stateMutability": "nonpayable",
      "type": "function"
    },
    {
      "inputs": [
        {
          "internalType": "address",
          "name": "_newArbitrator",
          "type": "address"
        }
      ],
      "name": "updateArbitrator",
      "outputs": [],
      "stateMutability": "nonpayable",
      "type": "function"
    },
    {
      "inputs": [
        {
          "internalType": "uint256",
          "name": "_newPeriod",
          "type": "uint256"
        }
      ],
      "name": "updateDisputePeriod",
      "outputs": [],
      "stateMutability": "nonpayable",
      "type": "function"
    },
    {
      "inputs": [
        {
          "internalType": "address",
          "name": "_newCollector",
          "type": "address"
        }
      ],
      "name": "updateFeeCollector",
      "outputs": [],
      "stateMutability": "nonpayable",
      "type": "function"
    },
    {
      "inputs": [
        {
          "internalType": "uint256",
          "name": "_newFeeBps",
          "type": "uint256"
        }
      ],
      "name": "updateFees",
      "outputs": [],
      "stateMutability": "nonpayable",
      "type": "function"
    }
  ],
  "bytecode": "0x608060405260fa6004556203f48060055566038d7ea4c680006006553480156200002857600080fd5b5060405162002712380380620027128339810160408190526200004b91620000b7565b600160008190558054610100600160a81b0319163361010002179055600280546001600160a01b03199081166001600160a01b03948516179091556003805490911691909216179055620000ef565b80516001600160a01b0381168114620000b257600080fd5b919050565b60008060408385031215620000cb57600080fd5b620000d6836200009a565b9150620000e6602084016200009a565b90509250929050565b61261380620000ff6000396000f3fe6080604052600436106101e35760003560e01c80638456cb5911610102578063c415b95c11610095578063d7d8672711610064578063d7d8672714610587578063d801fd2d146105a7578063db2e21bc146105c7578063fa25a817146105dc57600080fd5b8063c415b95c14610507578063c94b674b14610527578063cf2646c214610547578063d2c35ce81461056757600080fd5b8063aafa944e116100d1578063aafa944e14610487578063bdc84ac31461049a578063bf22c457146104ba578063bffc243d146104e757600080fd5b80638456cb59146104005780638c079d65146104155780638da5cb5b146104425780638facd8591461046757600080fd5b80635aef573c1161017a5780636cc6cde1116101495780636cc6cde11461037257806376619969146103aa57806378dacee1146103ca5780637c0f8c6c146103ea57600080fd5b80635aef573c146103035780635bf31d4d146103235780635c975abb146103395780635f81a57c1461035c57600080fd5b80631dffa3dc116101b65780631dffa3dc146102a257806322dcd13e146102c25780633f4ba83a146102d85780634c5d8a0f146102ed57600080fd5b806306e652dd146101e857806313114a9d1461020a578063136d888314610233578063180aedf31461026a575b600080fd5b3480156101f457600080fd5b50610208610203366004611f4d565b6105fc565b005b34801561021657600080fd5b50610220600c5481565b6040519081526020015b60405180910390f35b34801561023f57600080fd5b50600854600b54600c544760408051948552602085019390935291830152606082015260800161022a565b34801561027657600080fd5b5061028a610285366004611f4d565b61068c565b60405161022a9c9b9a99989796959493929190611fe4565b3480156102ae57600080fd5b506102086102bd366004611f4d565b610813565b3480156102ce57600080fd5b5061022060045481565b3480156102e457600080fd5b506102086109ac565b3480156102f957600080fd5b5061022060085481565b34801561030f57600080fd5b5061020861031e366004612116565b6109e5565b34801561032f57600080fd5b5061022060055481565b34801561034557600080fd5b5060015460ff16604051901515815260200161022a565b34801561036857600080fd5b50610220600b5481565b34801561037e57600080fd5b50600254610392906001600160a01b031681565b6040516001600160a01b03909116815260200161022a565b3480156103b657600080fd5b506102086103c5366004612116565b610b23565b3480156103d657600080fd5b506102086103e5366004611f4d565b610c34565b3480156103f657600080fd5b5061022060065481565b34801561040c57600080fd5b50610208610ca4565b34801561042157600080fd5b50610435610430366004612174565b610cdb565b60405161022a9190612196565b34801561044e57600080fd5b506001546103929061010090046001600160a01b031681565b34801561047357600080fd5b506102206104823660046121da565b610d47565b610220610495366004612204565b610d78565b3480156104a657600080fd5b506102086104b5366004612241565b610fc3565b3480156104c657600080fd5b506104da6104d5366004611f4d565b6113db565b60405161022a9190612263565b3480156104f357600080fd5b50610208610502366004612174565b6115c5565b34801561051357600080fd5b50600354610392906001600160a01b031681565b34801561053357600080fd5b50610208610542366004611f4d565b611656565b34801561055357600080fd5b50610435610562366004612174565b611721565b34801561057357600080fd5b50610208610582366004612174565b61178b565b34801561059357600080fd5b506102086105a236600461234c565b61181c565b3480156105b357600080fd5b506102206105c23660046121da565b611980565b3480156105d357600080fd5b5061020861199c565b3480156105e857600080fd5b506102086105f7366004611f4d565b611a65565b60015461010090046001600160a01b031633146106345760405162461bcd60e51b815260040161062b90612378565b60405180910390fd5b62015180811015801561064a575062278d008111155b6106875760405162461bcd60e51b815260206004820152600e60248201526d125b9d985b1a59081c195c9a5bd960921b604482015260640161062b565b600555565b6007602052600090815260409020805481906106a79061239b565b80601f01602080910402602001604051908101604052809291908181526020018280546106d39061239b565b80156107205780601f106106f557610100808354040283529160200191610720565b820191906000526020600020905b81548152906001019060200180831161070357829003601f168201915b50505060018401546002850154600386015460048701546005880154600689015460078a015460088b015460098c0154600a8d0154600b8e0180549d9e6001600160a01b039b8c169e9a8c169d5098909a169a5095989497939692959194909360ff90921692916107909061239b565b80601f01602080910402602001604051908101604052809291908181526020018280546107bc9061239b565b80156108095780601f106107de57610100808354040283529160200191610809565b820191906000526020600020905b8154815290600101906020018083116107ec57829003601f168201915b505050505090508c565b61081b611b98565b600081815260076020526040902060018101546001600160a01b031633146108725760405162461bcd60e51b815260206004820152600a602482015269139bdd0818db1a595b9d60b21b604482015260640161062b565b6000600a82015460ff16600681111561088d5761088d611fac565b146108ca5760405162461bcd60e51b815260206004820152600d60248201526c10d85b9b9bdd0818d85b98d95b609a1b604482015260640161062b565b600a8101805460ff19166005179055600181015460048201546040516000926001600160a01b031691908381818185875af1925050503d806000811461092c576040519150601f19603f3d011682016040523d82523d6000602084013e610931565b606091505b50509050806109725760405162461bcd60e51b815260206004820152600d60248201526c1499599d5b990819985a5b1959609a1b604482015260640161062b565b60405183907f58243f872c550ad02802199ade99eb4250f6bb19e9abbf2d3de7b969c0eb5e4f90600090a250506109a96001600055565b50565b60015461010090046001600160a01b031633146109db5760405162461bcd60e51b815260040161062b90612378565b6109e3611bc2565b565b600082815260076020526040902060018101546001600160a01b0316331480610a1a575060028101546001600160a01b031633145b610a575760405162461bcd60e51b815260206004820152600e60248201526d139bdd08185d5d1a1bdc9a5e995960921b604482015260640161062b565b6001600a82015460ff166006811115610a7257610a72611fac565b1480610a9657506002600a82015460ff166006811115610a9457610a94611fac565b145b610ad35760405162461bcd60e51b815260206004820152600e60248201526d43616e6e6f74206469737075746560901b604482015260640161062b565b600a8101805460ff1916600417905560405183907fb59122d87b9a129d9dbb8103c368a3de4e00b50a9fc86c22d48c74cca778e67090610b1690339086906123d5565b60405180910390a2505050565b600082815260076020526040902060028101546001600160a01b03163314610b795760405162461bcd60e51b8152602060048201526009602482015268139bdd081859d95b9d60ba1b604482015260640161062b565b6001600a82015460ff166006811115610b9457610b94611fac565b14610bd25760405162461bcd60e51b815260206004820152600e60248201526d21b0b73737ba103232b634bb32b960911b604482015260640161062b565b600a8101805460ff19166002179055600b8101610bef8382612448565b50600554610bfd904261251e565b600982015560405183907f53da9d34525fbf7971b56f93fb041671d1dfa42aaf2d28acd4df83ba502a0dac90610b16908590612537565b60015461010090046001600160a01b03163314610c635760405162461bcd60e51b815260040161062b90612378565b6103e8811115610c9f5760405162461bcd60e51b81526020600482015260076024820152664d61782031302560c81b604482015260640161062b565b600455565b60015461010090046001600160a01b03163314610cd35760405162461bcd60e51b815260040161062b90612378565b6109e3611c14565b6001600160a01b0381166000908152600a6020908152604091829020805483518184028101840190945280845260609392830182828015610d3b57602002820191906000526020600020905b815481526020019060010190808311610d27575b50505050509050919050565b60096020528160005260406000208181548110610d6357600080fd5b90600052602060002001600091509150505481565b6000610d82611c4f565b600654341015610dc55760405162461bcd60e51b815260206004820152600e60248201526d416d6f756e7420746f6f206c6f7760901b604482015260640161062b565b6008805460009182610dd68361254a565b919050559050600061271060045434610def9190612563565b610df9919061257a565b604080516101808101825286815233602082015260009181018290526060810182905234608082015260a081018390524260c082015260e08101829052610100810182905261012081018290529192506101408201908152604080516020818101835260008083529381019190915285835260079052902081518190610e7f9082612448565b506020820151600180830180546001600160a01b039384166001600160a01b03199182161790915560408501516002850180549185169183169190911790556060850151600385018054919094169116179091556080830151600483015560a0830151600583015560c083015160068084019190915560e0840151600784015561010084015160088401556101208401516009840155610140840151600a840180549193909260ff19909216918490811115610f3d57610f3d611fac565b0217905550610160820151600b820190610f579082612448565b505033600081815260096020908152604080832080546001810182559084529190922001859055518492507fb68c4f45103c07a72301cd60c5432393fa2ec789c5139d5805ca70218eda50aa91610fb291889190349061259c565b60405180910390a25090505b919050565b6002546001600160a01b0316331461100e5760405162461bcd60e51b815260206004820152600e60248201526d2737ba1030b93134ba3930ba37b960911b604482015260640161062b565b611016611b98565b606481111561105c5760405162461bcd60e51b8152602060048201526012602482015271496e76616c69642070657263656e7461676560701b604482015260640161062b565b60008281526007602052604090206004600a82015460ff16600681111561108557611085611fac565b146110c15760405162461bcd60e51b815260206004820152600c60248201526b139bdd08191a5cdc1d5d195960a21b604482015260640161062b565b600581015460048201546000906110d99083906125ca565b9050600060646110e98684612563565b6110f3919061257a565b9050600061110182846125ca565b90508460040154600b6000828254611119919061251e565b9250508190555083600c6000828254611132919061251e565b909155505083156111cf576003546040516000916001600160a01b03169086908381818185875af1925050503d806000811461118a576040519150601f19603f3d011682016040523d82523d6000602084013e61118f565b606091505b50509050806111cd5760405162461bcd60e51b815260206004820152600a6024820152691199594819985a5b195960b21b604482015260640161062b565b505b81156112735760018501546040516000916001600160a01b03169084908381818185875af1925050503d8060008114611224576040519150601f19603f3d011682016040523d82523d6000602084013e611229565b606091505b50509050806112715760405162461bcd60e51b815260206004820152601460248201527310db1a595b9d081c99599d5b990819985a5b195960621b604482015260640161062b565b505b801561134e5760038501546000906001600160a01b03166112a15760028601546001600160a01b03166112b0565b60038601546001600160a01b03165b90506000816001600160a01b03168360405160006040518083038185875af1925050503d80600081146112ff576040519150601f19603f3d011682016040523d82523d6000602084013e611304565b606091505b505090508061134b5760405162461bcd60e51b81526020600482015260136024820152721059d95b9d081c185e5bdd5d0819985a5b1959606a1b604482015260640161062b565b50505b82821461135c57600361135f565b60065b600a8601805460ff1916600183600681111561137d5761137d611fac565b0217905550604080516064881481526020810184905290810182905287907f88eecbbf54eddf9adbeb289ef36beac8d141af4274d667ccc04a40044df75b399060600160405180910390a250505050506113d76001600055565b5050565b6113e3611ec0565b600082815260076020526040908190208151610180810190925280548290829061140c9061239b565b80601f01602080910402602001604051908101604052809291908181526020018280546114389061239b565b80156114855780601f1061145a57610100808354040283529160200191611485565b820191906000526020600020905b81548152906001019060200180831161146857829003601f168201915b505050918352505060018201546001600160a01b039081166020830152600283015481166040830152600383015416606082015260048201546080820152600582015460a082015260068083015460c0830152600783015460e083015260088301546101008301526009830154610120830152600a8301546101409092019160ff169081111561151757611517611fac565b600681111561152857611528611fac565b8152602001600b8201805461153c9061239b565b80601f01602080910402602001604051908101604052809291908181526020018280546115689061239b565b80156115b55780601f1061158a576101008083540402835291602001916115b5565b820191906000526020600020905b81548152906001019060200180831161159857829003601f168201915b5050505050815250509050919050565b60015461010090046001600160a01b031633146115f45760405162461bcd60e51b815260040161062b90612378565b6001600160a01b0381166116345760405162461bcd60e51b8152602060048201526007602482015266125b9d985b1a5960ca1b604482015260640161062b565b600280546001600160a01b0319166001600160a01b0392909216919091179055565b61165e611b98565b600081815260076020526040902060018101546001600160a01b031633146116b55760405162461bcd60e51b815260206004820152600a602482015269139bdd0818db1a595b9d60b21b604482015260640161062b565b6002600a82015460ff1660068111156116d0576116d0611fac565b1461170d5760405162461bcd60e51b815260206004820152600d60248201526c139bdd0819195b1a5d995c9959609a1b604482015260640161062b565b61171682611c73565b506109a96001600055565b6001600160a01b038116600090815260096020908152604091829020805483518184028101840190945280845260609392830182828015610d3b5760200282019190600052602060002090815481526020019060010190808311610d275750505050509050919050565b60015461010090046001600160a01b031633146117ba5760405162461bcd60e51b815260040161062b90612378565b6001600160a01b0381166117fa5760405162461bcd60e51b8152602060048201526007602482015266125b9d985b1a5960ca1b604482015260640161062b565b600380546001600160a01b0319166001600160a01b0392909216919091179055565b611824611c4f565b600082815260076020526040812090600a82015460ff16600681111561184c5761184c611fac565b146118895760405162461bcd60e51b815260206004820152600d60248201526c4e6f7420617661696c61626c6560981b604482015260640161062b565b6001810154336001600160a01b03909116036118e05760405162461bcd60e51b815260206004820152601660248201527510db1a595b9d0818d85b9b9bdd081899481859d95b9d60521b604482015260640161062b565b6002810180546001600160a01b0319908116339081179092556003830180546001600160a01b038616921682179055600a808401805460ff191660019081179091554260078601556000848152602092835260408082208054938401815582529083902090910187905580519384529083019190915284917f8ae465414c00fb9483fd14ea2bc6532d5a0eaec16f65ba0dd1d4325b67d9aa2e9101610b16565b600a6020528160005260406000208181548110610d6357600080fd5b60015461010090046001600160a01b031633146119cb5760405162461bcd60e51b815260040161062b90612378565b60015460405160009161010090046001600160a01b03169047908381818185875af1925050503d8060008114611a1d576040519150601f19603f3d011682016040523d82523d6000602084013e611a22565b606091505b50509050806109a95760405162461bcd60e51b815260206004820152600f60248201526e15da5d1a191c985dc819985a5b1959608a1b604482015260640161062b565b611a6d611b98565b600081815260076020526040902060028101546001600160a01b03163314611ac35760405162461bcd60e51b8152602060048201526009602482015268139bdd081859d95b9d60ba1b604482015260640161062b565b6002600a82015460ff166006811115611ade57611ade611fac565b14611b1b5760405162461bcd60e51b815260206004820152600d60248201526c139bdd0819195b1a5d995c9959609a1b604482015260640161062b565b80600901544211611b645760405162461bcd60e51b8152602060048201526013602482015272111958591b1a5b99481b9bdd081c185cdcd959606a1b604482015260640161062b565b60405182907fc146a7d89ca92c0d57252af7bfbdd6a799db786bae57b59dde6306a5a658c94390600090a261171682611c73565b600260005403611bbb57604051633ee5aeb560e01b815260040160405180910390fd5b6002600055565b611bca611e9d565b6001805460ff191690557f5db9ee0a495bf2e6ff9c91a7834c1ba4fdd244a5e8aa4e537bd38aeae4b073aa335b6040516001600160a01b03909116815260200160405180910390a1565b611c1c611c4f565b6001805460ff1916811790557f62e78cea01bee320cd4e420270b5ea74000d11b0c9f74754ebdbfc544b05a25833611bf7565b60015460ff16156109e35760405163d93c066560e01b815260040160405180910390fd5b6000818152600760205260408120600a8101805460ff191660031790554260088201556005810154600482015491929091611caf9083906125ca565b90508260040154600b6000828254611cc7919061251e565b9250508190555081600c6000828254611ce0919061251e565b90915550508115611d86576003546040516000916001600160a01b03169084908381818185875af1925050503d8060008114611d38576040519150601f19603f3d011682016040523d82523d6000602084013e611d3d565b606091505b5050905080611d845760405162461bcd60e51b8152602060048201526013602482015272119959481d1c985b9cd9995c8819985a5b1959606a1b604482015260640161062b565b505b60038301546000906001600160a01b0316611dae5760028401546001600160a01b0316611dbd565b60038401546001600160a01b03165b90506000816001600160a01b03168360405160006040518083038185875af1925050503d8060008114611e0c576040519150601f19603f3d011682016040523d82523d6000602084013e611e11565b606091505b5050905080611e5a5760405162461bcd60e51b81526020600482015260156024820152741059d95b9d081d1c985b9cd9995c8819985a5b1959605a1b604482015260640161062b565b604080518481526020810186905287917f7c5d69214198831f9c6fbb4fa6a2bd35bc8fca92609004e229858adfd271f6fd910160405180910390a2505050505050565b60015460ff166109e357604051638dfc202b60e01b815260040160405180910390fd5b6040518061018001604052806060815260200160006001600160a01b0316815260200160006001600160a01b0316815260200160006001600160a01b0316815260200160008152602001600081526020016000815260200160008152602001600081526020016000815260200160006006811115611f4057611f40611fac565b8152602001606081525090565b600060208284031215611f5f57600080fd5b5035919050565b6000815180845260005b81811015611f8c57602081850181015186830182015201611f70565b506000602082860101526020601f19601f83011685010191505092915050565b634e487b7160e01b600052602160045260246000fd5b60078110611fe057634e487b7160e01b600052602160045260246000fd5b9052565b61018081526000611ff961018083018f611f66565b60018060a01b03808f166020850152808e166040850152808d166060850152508a60808401528960a08401528860c08401528760e0840152866101008401528561012084015261204d610140840186611fc2565b8281036101608401526120608185611f66565b9f9e505050505050505050505050505050565b634e487b7160e01b600052604160045260246000fd5b600082601f83011261209a57600080fd5b813567ffffffffffffffff808211156120b5576120b5612073565b604051601f8301601f19908116603f011681019082821181831017156120dd576120dd612073565b816040528381528660208588010111156120f657600080fd5b836020870160208301376000602085830101528094505050505092915050565b6000806040838503121561212957600080fd5b82359150602083013567ffffffffffffffff81111561214757600080fd5b61215385828601612089565b9150509250929050565b80356001600160a01b0381168114610fbe57600080fd5b60006020828403121561218657600080fd5b61218f8261215d565b9392505050565b6020808252825182820181905260009190848201906040850190845b818110156121ce578351835292840192918401916001016121b2565b50909695505050505050565b600080604083850312156121ed57600080fd5b6121f68361215d565b946020939093013593505050565b60006020828403121561221657600080fd5b813567ffffffffffffffff81111561222d57600080fd5b61223984828501612089565b949350505050565b6000806040838503121561225457600080fd5b50508035926020909101359150565b60208152600082516101808060208501526122826101a0850183611f66565b9150602085015161229e60408601826001600160a01b03169052565b5060408501516001600160a01b03811660608601525060608501516001600160a01b038116608086015250608085015160a085015260a085015160c085015260c085015160e085015260e085015161010081818701528087015191505061012081818701528087015191505061014081818701528087015191505061016061232881870183611fc2565b860151858403601f19018387015290506123428382611f66565b9695505050505050565b6000806040838503121561235f57600080fd5b8235915061236f6020840161215d565b90509250929050565b6020808252600990820152682737ba1037bbb732b960b91b604082015260600190565b600181811c908216806123af57607f821691505b6020821081036123cf57634e487b7160e01b600052602260045260246000fd5b50919050565b6001600160a01b038316815260406020820181905260009061223990830184611f66565b601f82111561244357600081815260208120601f850160051c810160208610156124205750805b601f850160051c820191505b8181101561243f5782815560010161242c565b5050505b505050565b815167ffffffffffffffff81111561246257612462612073565b61247681612470845461239b565b846123f9565b602080601f8311600181146124ab57600084156124935750858301515b600019600386901b1c1916600185901b17855561243f565b600085815260208120601f198616915b828110156124da578886015182559484019460019091019084016124bb565b50858210156124f85787850151600019600388901b60f8161c191681555b5050505050600190811b01905550565b634e487b7160e01b600052601160045260246000fd5b8082018082111561253157612531612508565b92915050565b60208152600061218f6020830184611f66565b60006001820161255c5761255c612508565b5060010190565b808202811582820484141761253157612531612508565b60008261259757634e487b7160e01b600052601260045260246000fd5b500490565b6060815260006125af6060830186611f66565b6001600160a01b039490941660208301525060400152919050565b818103818111156125315761253161250856fea26469706673582212206d1f5834327fd43bfb046f272cd72709083f01b286b0228f9e99839126f38d3e64736f6c63430008140033",
  "linkReferences": {},
  "deployedLinkReferences": {}
}